:020000040800F2
:10000000A83F0024B1020008C5B30008E58C000831
:1000100091AF0008AD130008F9DE000800000000F1
:1000200000000000000000000000000091BB00087C
:10003000D92100080000000039B6000803C80008F4
:10004000CB020008CB020008CB020008CB0200085C
:10005000CB020008CB020008CB020008CB0200084C
:10006000CB020008CB020008CB020008511900089F
:10007000CB0200085D19000869190008751900080D
:10008000811900088D190008CB0200081D22000804
:1000900029220008CB020008CB020008CB0200088E
:1000A000CB020008CB020008CB020008CB020008FC
:1000B000CB020008CB020008CB020008CB020008EC
:1000C000CB020008CB020008CB020008CB020008DC
:1000D000CB0200088DDE0008ADDE0008CDDE000892
:1000E000CB020008CB02000800000000CB02000891
:1000F000CB020008D9CE0008CB02000899190008ED
:10010000CB020008CB020008CB020008CB0200089B
:10011000ADD30008B9D30008CB020008CB02000819
:10012000A5190008B1190008CB020008BD19000884
:10013000C9190008CB020008CB020008CB02000856
:1001400000000000000000000000000000000000AF
:10015000CB020008CB020008CB020008EDDE00084D
:10016000CB020008CB020008CB020008CB0200083B
:10017000CB020008CB020008CB020008CB0200082B
:10018000CB020008CB020008CB020008CB0200081B
:10019000CB020008CB020008CB020008CB0200080B
:1001A000CB020008CB020008CB020008CB020008FB
:1001B000CB020008CB020008CB020008CB020008EB
:1001C000CB020008CB020008CB020008CB020008DB
:1001D000CB020008CB020008CB020008CB020008CB
:1001E000CB020008CB020008CB020008CB020008BB
:1001F000CB020008CB020008CB020008CB020008AB
:10020000CB020008CB020008CB020008CB0200089A
:10021000CB020008CB020008CB020008CB0200088A
:10022000CB020008CB020008CB020008000000004F
:10023000CB020008CB02000800000000CB0200083F
:10024000CB020008CB020008CB020008CB0200085A
:10025000CB020008CB020008CB020008CB0200084A
:10026000CB020008CB020008CB020008CB0200083A
:10027000CB020008CB020008CB02000800000000FF
:10028000CB020008CB020008CB02000800000000EF
:1002900000000000CB020008DFF810D000F066FA82
:1002A0000048004735F90008AFF30080A83F00245C
:1002B0000648804706480047FEE7FEE7FEE7FEE700
:1002C000FEE7FEE7FEE7FEE7FEE7FEE7A9C8000857
:1002D000990200082DE9F05F0546002092469B46F2
:1002E00088460646814640241BE02846414647464C
:1002F000224600F072F853465A46C01A914110D374
:1003000011461846224600F059F82D1A67EB0108ED
:100310004F4622460120002100F050F817EB00095B
:100320004E41201EA4F10104DFDC484631462A4636
:100330004346BDE8F09F40EA01039B0703D009E074
:1003400008C9121F08C0042AFAD203E011F8013BC1
:1003500000F8013B521EF9D27047D2B201E000F81A
:10036000012B491EFBD270470022F6E710B5134659
:100370000A4604461946FFF7F0FF204610BD034623
:1003800011F8012B00F8012B002AF9D1184670470B
:1003900030B50B46014600202022012409E021FA55
:1003A00002F59D4205D303FA02F5491B04FA02F552
:1003B0002844151EA2F10102F1DC30BD202A04DB25
:1003C000203A00FA02F1002070479140C2F1200368
:1003D00020FA03F3194390407047202A04DB203AA7
:1003E00021FA02F00021704721FA02F3D040C2F155
:1003F000200291400843194670472DE9FE4F804680
:1004000081EA0300C00F0C46009021F0004123F068
:100410000045B8EB0200A94105D24046214690466E
:100420001C460B46024623F00040104347D0270DE0
:10043000C7F30A00C3F30A510290401A0190402802
:100440006BDAC3F3130040F4801B0098924620B18E
:100450000023D2EB030A63EB0B0B01985946C0F162
:1004600040025046FFF7AAFF06460D465046594641
:10047000019A00F08DF910EB08006141002487EA31
:10048000115284EAE7731A4340D0009A62B3019A8A
:10049000012A4FEA075215DC001B61EB02014FF005
:1004A000004202EA0752CDE90042001C41F58011EA
:1004B00032462B4600F08DF903B0BDE8F08F404680
:1004C0002146F9E7001B61EB0201001C41F5801396
:1004D00000185B412018A2F5001747EB030140EA22
:1004E000D570B6196D4111E06D084FEA360645EA40
:1004F000C0754FEA0752001B61EB0201001C41F579
:10050000801149084FEA30000019514132462B460C
:1005100003B0BDE8F04F00F04DB900980122400053
:100520000023D0EB020263EBE073009821464FEA10
:10053000E074B8EB000061EB0401E9E783F00043ED
:100540005BE781F0004158E72DE9FE4F81EA0304A3
:1005500004F0004421F0004100944FF0000B23F020
:10056000004350EA01045ED052EA03045BD0C3F3B7
:100570000A54C1F30A552C44A4F2F3340194A0FBAD
:100580000254C1F3130141F48011C3F3130343F484
:10059000801301FB024400FB034E840A970A44EADD
:1005A000815447EA8357A4FB076802958D0A05FB2F
:1005B00007854FEA932C04FB0C542705029D4FEA54
:1005C000065847EA1637B5EB08056EEB070C870EA1
:1005D000920E47EA811742EA8312A7FB0201B6EBAB
:1005E0000B0164EB00042B0D43EA0C335E1844EB63
:1005F0001C50DA465146E7FB0201C5F313044FEAEB
:100600000B3343EA14534FEA0432019C43EA0603D6
:10061000A4F10C040294009CCDE900B400F0D9F8D8
:1006200003B0BDE8F08F00200146F9E72DE9F04D59
:1006300081EA030404F0004B21F0004514464FF01A
:10064000000A23F0004150EA050220D054EA0102DA
:100650001DD0C5F30A570246C5F31303C1F31300B7
:10066000C1F30A5640F4801543F48013A7EB060843
:10067000101BD64608F2FD3873EB050002D308F1D3
:10068000010801E092185B41B8F1000F03DA002085
:100690000146BDE8F08D00204FF4801106468446E7
:1006A0000EE0171B73EB050705D3121B63EB050365
:1006B00006434CEA010C49084FEA300092185B41AE
:1006C00050EA0107EDD152EA030012D082EA040099
:1006D00083EA0501084305D0101BAB4106D2012275
:1006E000002306E000224FF0004302E06FF0010219
:1006F00053101AEB06004CEB085110EB0A0041EBCB
:100700000B01BDE8F04D00F055B8C1F30A52C1F33A
:10071000130140F2FF3341F480119A4202DA0020C3
:100720000146704740F233439A42A2F2334202DC60
:100730005242FFF752BEFFF741BE000030B5041E23
:1007400071F1000404DB4FF00044404264EB01010E
:10075000141E73F1000405DB1C464FF000435242A7
:1007600063EB0403994208BF904230BD064C074D2D
:1007700006E0E06840F0010394E807009847103471
:10078000AC42F6D3FFF78CFDB8110108D81101086F
:10079000202A06DBCB17203A41FA02F043EAE07345
:1007A00006E041FA02F3D040C2F120029140084332
:1007B0001946704710B5141E73F1000408DA401C86
:1007C00041F1000192185B411A4301D120F0010070
:1007D00010BD2DE9F04D92469B4611B1B1FA81F260
:1007E00002E0B0FA80F220329046FFF7E7FD0446BF
:1007F0000F4640EA0A0041EA0B0153465A460843B5
:1008000013D0114653EA010019D0C8F140025046F6
:10081000FFF7E3FD05460E46504659464246FFF7B0
:10082000CDFD084305D0012004E020463946BDE84F
:10083000F08D0020054346EAE0762C4337430A98C2
:100840006305E40AA0EB08000022FD0A44EA4754CD
:100850000A3002D500200146E9E701051019694177
:10086000DDE9084500196941BDE8F04DA2E770B522
:100870008C1810F8015B15F0070301D110F8013B4B
:100880002A1106D110F8012B03E010F8016B01F8D2
:10089000016B5B1EF9D12B0705D40023521E0DD42A
:1008A00001F8013BFAE710F8013BCB1A921C03E078
:1008B00013F8015B01F8015B521EF9D5A142D8D3B0
:1008C000002070BD30EE600A204A43F69821DFED2B
:1008D0001E0A80ED030AD0ED001A60EE211AC0ED69
:1008E000041A90ED052AD0ED012A00EE222A80EDAF
:1008F000052A92898A4201D2C0ED050A9FED142A89
:1009000080ED082AB4EEC20AF1EE10FA06DC9FED83
:10091000112AB4EEC20AF1EE10FA01D2C0ED050AB6
:1009200090ED020AD0ED050A20EE410A71EEA00A10
:1009300080ED060A70EE800AC0ED070ABDEEE00AFF
:1009400010EE100A7047000000000000200F002485
:1009500000007A4400007AC430EE600A284A10EEA3
:10096000101A80ED030A914203DD9FED260A80ED07
:10097000030A10EE101A244A914203D99FED230A6C
:1009800080ED030AD0ED001A224A43F69821DFEDEC
:10099000200A60EE211AC0ED041A90ED052AD0ED70
:1009A000012A00EE222A80ED052A92898A4201D28C
:1009B000C0ED050A9FED182A80ED082AB4EEC20AA0
:1009C000F1EE10FA06DC9FED152AB4EEC20AF1EE44
:1009D00010FA01D2C0ED050A90ED020AD0ED050A29
:1009E00020EE410A71EEA00A80ED060A70EE800A40
:1009F000C0ED070ABDEEE00A10EE100A70470000D5
:100A00000000704200007042000070C2000070C21E
:100A100000000000200F002400007A4400007AC487
:100A200010EE101A1B4ADFED1C0A91422FDBB3EEC9
:100A3000041A90ED052A30EE410AD0ED012AD0EDDE
:100A4000001A90ED081A00EE222A60EE211AB4EE88
:100A5000C10A80ED030AC0ED041AF1EE10FA80ED30
:100A6000052A09DCB1EE411AB4EEC10AF1EE10FA22
:100A700002D3D0ED050A01E0C0ED050A71EEA00A2F
:100A800090ED060A30EE800A80ED070A7047B0EE5E
:100A9000600A70470000A041000000009FED062A98
:100AA000C0ED081A80ED042A80ED052A80ED062AA3
:100AB00080EC030A704700000000000030EE600A7E
:100AC000DFED250A90ED052AD0ED011AD0ED002AC0
:100AD0009FED221AB4EEE00A80ED030AF1EE10FA5F
:100AE00000EE212A60EE221AC0ED080AC0ED041AB9
:100AF00080ED052A15DC1A4991F8891089B1F5EEC7
:100B0000C00AF1EE10FA01D0012100E000214942B3
:100B100000EE901AF8EEE00AF4EEC00AF1EE10FAD8
:100B200001DD80ED051A90ED092AD0ED020A90ED65
:100B3000051A80ED090A30EE420A31EE811A20EEE4
:100B4000C00A80ED060A71EE000AC0ED070ABDEE8C
:100B5000E00A10EE100A70479A99193E0000000052
:100B60001412002430EE600A10B5B1EE041AD0ED74
:100B7000051A90ED012AD0ED002ADFED250AB4EE2A
:100B8000C10A80ED030AF1EE10FA80ED081A40EE7A
:100B9000021A20EE221A044680ED041AC0ED051A4E
:100BA0000ADC1C4890F8890030B1F9EE041AB4EE62
:100BB000E10AF1EE10FA01D2C4ED050AD4ED091AEA
:100BC000D4ED020A144870EE611A60EEE10AC4ED39
:100BD000060A84ED090A94ED050A31EE000A30EEAA
:100BE000200A84ED070A0078012804D10B4890F808
:100BF0002800022809D00A4809F02AFB84ED070AD8
:100C0000BDEEC00A10EE100A10BD0648F4E7000061
:100C10000000000014120024B81700240817002454
:100C2000000200242002002430EE600A90ED052A24
:100C3000D0ED011AD0ED002A90ED081A00EE212A1D
:100C400060EE221ADFED0E0AB4EEC10A80ED030A4F
:100C5000F1EE10FAC0ED041A80ED052A06DCB1EEC3
:100C6000411AB4EEC10AF1EE10FA01D2C0ED050A44
:100C700090ED050A31EE800A80ED070A704700000A
:100C80000000000030EE600ADFED250A90ED052A35
:100C9000D0ED011AD0ED002A9FED221AB4EEE00A41
:100CA00080ED030AF1EE10FA00EE212A60EE221A1E
:100CB000C0ED080AC0ED041A80ED052A15DC1A49BA
:100CC00091F8891089B1F5EEC00AF1EE10FA01D061
:100CD000012100E00021494200EE901AF8EEE00AFE
:100CE000F4EEC00AF1EE10FA01DD80ED051A90ED88
:100CF000092AD0ED020A90ED051A80ED090A30EEBE
:100D0000420A31EE811A20EEC00A80ED060A71EE29
:100D1000000AC0ED070ABDEEE00A10EE100A7047A7
:100D200000007A44000000001412002430EE600A33
:100D300010B5B0EE001AD0ED051A90ED012AD0EDF5
:100D4000002ADFED250AB4EEC10A80ED030AF1EEB8
:100D500010FA80ED081A40EE021A20EE221A04461C
:100D600080ED041AC0ED051A0ADC1C4890F88900D1
:100D700030B1F8EE001AB4EEE10AF1EE10FA01D249
:100D8000C4ED050AD4ED091AD4ED020A144870EE38
:100D9000611A60EEE10AC4ED060A84ED090A94EDD9
:100DA000050A31EE000A30EE200A84ED070A0078C9
:100DB000012804D10B4890F82800022809D00A48DD
:100DC00009F046FA84ED070ABDEEC00A10EE100ADB
:100DD00010BD0648F4E700000000000014120024D3
:100DE000B817002408170024100200243002002441
:100DF0002DE9F0431378AA2B42D1F64B0024DFED06
:100E0000F60A9C61C3ED090A557805709678012DA4
:100E1000467037D0022D33D19179DD2930D1C6EB20
:100E2000C601D37800EB81014B7143781179C3EB94
:100E3000C30300EB8303997141785479C1EBC1037B
:100E4000C4F3C00100EB8303197641785379C1EBF9
:100E5000C101C3F3800300EB81014B7641785379E4
:100E6000C1EBC101C3F3400300EB81018B764178F4
:100E70005379C1EBC10203F0010100EB8200C1769E
:100E8000BDE8F083557ADD2DFAD1D7789FEDD30AEE
:100E90009FEDD31A01255FEA971C5FD0B5EB971F32
:100EA00016D107F03F0792F804C0C6EBC60607EB61
:100EB000C70808EB071700EB86080CEB870601EE66
:100EC000906AF8EE611A81EE812A00BF88ED022A4D
:100ED0005679B70957D0B5EB961F17D106F03F06E4
:100EE00092F806C0477806EBC60808EB0616C7EB73
:100EF000C7070CEB860600EE106A00EB8706B8EE1B
:100F0000400AC0EE011A00BFC6ED031AD779F2EE0F
:100F1000041A00EE107A90F801C0B24EB8EE400A02
:100F2000CCEBCC07B7EE001A00EB870780EE212A46
:100F300087ED042A4778127AC7EBC70700EB8707CB
:100F40003A7596ED000AA84A30EE010A86ED000ACD
:100F5000548091F82820012A2BD02BE007F03F077E
:100F600092F804C0C6EBC60607EBC70808EB0717E4
:100F700000EB86080CEB870601EE906AF8EE611A2A
:100F800081EE802AA2E706F03F0692F806C0477875
:100F900006EBC60808EB0616C7EBC7070CEB860680
:100FA00001EE106A00EB8706B8EE411AC1EE001A96
:100FB000AAE75D708D4A92ED050AB5EEC00AF1EE22
:100FC00010FA02DDB0EE401A01E0B1EE401A11EE67
:100FD000107A874EDFF81CC23E44664536D2DFEDFC
:100FE000861A92ED031AB5EEC01AF1EE10FA06DB7E
:100FF000B5EEC00AF1EE10FA01DDC2ED071AB5EE4A
:10100000C01AF1EE10FA9FED7D2A06DBB5EEC00A9C
:10101000F1EE10FA01D282ED072AB5EEC01AF1EE18
:1010200010FA06D2B5EEC00AF1EE10FA01DD82ED3B
:10103000072AB5EEC01AF1EE10FA09D2B5EEC00AD1
:10104000F1EE10FA04DDC2ED071A01E0C2ED070A65
:10105000477892ED071A6A4EC7EBC70700EB870780
:1010600097ED020A30EE011A83ED071A4778C7EBB5
:10107000C70700EB870090ED030A83ED080A96F896
:101080002800022801D001287DD1B5EEC01AF1EE6A
:1010900010FA78D0B5EEC00AF1EE10FA73D05948C4
:1010A0004068B0F57A7F6EDB574896F82E6016B12F
:1010B000012E09D00EE0554E86F84A50D0ED131A95
:1010C00031EE811A80ED111A90ED021A31EE000A0C
:1010D00080ED000A91F82800022872D1DFF80C8117
:1010E000167808F1240893ED040A08EB860C701CAE
:1010F0008CED000A08F1280793ED050A07EB860638
:10110000C0B286ED000A0928107007F1280903D043
:101110005078012802D046E0557014700020C2EDCE
:10112000010AC2ED020A99F801609FED395BC6EB36
:10113000C60609EB860595ED023AD5ED032A00BFF8
:1011400008EB800592ED011AD5ED001A07EB800639
:10115000B0EE450B31EE211A401C0A2882ED011A2F
:10116000B7EEC11AD6ED003A92ED022A32EE232AEA
:1011700021EE004BB7EEC21A82ED022A21EE001BCF
:10118000F7EEC40B00E01CE0B7EEC11B33EE600AC3
:10119000C2ED030A82ED041A72EEC10A82ED050A5D
:1011A000C2ED060ACCDB99F80150C5EBC50509EB89
:1011B000850090ED020A83ED040A90ED030A83EDA9
:1011C000050A91F8280000287FF45AAE5470147074
:1011D00056E6000040020024000000000000C84263
:1011E0000000C8C224160024DA1500244417002485
:1011F000F528DCC38FC2F501CDCCCC3DCDCCCCBD28
:1012000008170024200F002428220024441600245C
:101210009A9999999999B93F10B591F8A0000C46FF
:1012200020B902220121002000F082F894F8A000E9
:10123000012804D101210222084600F079F894F82F
:10124000A000022804D102220121104600F070F80B
:1012500094F8A000032803D10222012100F068F8CD
:1012600094F8A000042803D10222012100F060F8C4
:1012700094F8A000052803D10222012100F058F8BB
:1012800094F8A000062803D10222012100F050F8B2
:1012900094F8A000072803D10222012100F048F8A9
:1012A00094F8A000082803D10222012100F040F8A0
:1012B00094F8A000092804D10F220321012000F096
:1012C00023F894F8A0000A2804D1022201210C205E
:1012D00000F02EF894F8A0000B2806D1022201217C
:1012E000BDE810400D2000F023B810BD0449AA232A
:1012F000DD220B70487003488A70032207F096BC09
:101300004020002448080024074B30B4AA25DD24DF
:101310001D70597019469870DA7005221C7130BC26
:10132000024807F083BC0000202200244808002463
:10133000074B30B4AA25DD241D705A700522997020
:101340001946D8701C7130BC024807F06FBC000011
:1013500010220024480800240549AA2200F00F03A7
:10136000DD200A7003224B708870024807F05EBCD3
:1013700000220024480800240449AA23DD220B701F
:10138000487003488A70032207F050BC40200024B4
:101390004808002403490246034800B5FFF728FD2A
:1013A000002000BD08170024B8170024FEE7000045
:1013B00030B58DB00546302201466846FEF7BBFFCA
:1013C000094C94E80F0009F097FE0848302229469E
:1013D0000C906846FEF7AFFF94E80F000AF0C8FCD7
:1013E0000DB0002030BD00000C0000243817002490
:1013F00000B58DB0014630226846FEF79CFF0348D9
:101400000FC809F079FE0DB0002000BD1C000024BB
:1014100010B588B0044601AB0020022100900122E3
:1014200083E80700049069460590206802F0BFFF3A
:1014300020680022012102F02FFF206803F085FCC4
:1014400008B010BD50F8042F5160C1E900200160C0
:10145000704710B58AB00C6800234FF40022049343
:10146000CDE90043CDE902320A1D05930693694692
:1014700007930893006802F05FFF10B100200AB0E4
:1014800010BD0120FBE7000070B5214B0D9A98427A
:101490003899C2F30723A1F20125A1F20524D2B2A3
:1014A00008D1032D01D81B480BE0032C2DD8194877
:1014B0000C3013E0184EB04227D1032D0AD815483E
:1014C000243000EB4100A0F5805080F8023C80F809
:1014D000032C1AE0032C0AD80E48303000EB4100F0
:1014E000A0F5805080F8FA3B80F8FB2B0DE0A1F2CC
:1014F0000920022809D807483C3000EB4100A0F53C
:10150000805080F8F23B80F8F32B002070BD000083
:101510005403002478000024F403002470B5194B10
:101520000D9A98423899C2F30723A1F20524A1F23B
:101530000925D2B208D1032C01D813480BE0022DA3
:101540001ED811480C3013E0104EB04218D1032CB5
:101550000AD80D48243000EB4100A0F5805080F8F7
:10156000FA3B80F8FB2B0BE0022D09D806483030FF
:1015700000EB4100A0F5805080F8F23B80F8F32B9F
:10158000002070BD5403002484000024F4030024D0
:1015900070B50488DDE90B128BB20D0C160C867148
:1015A000448192B259BA01816BBA438052BA8280A7
:1015B0000180002070BD0000074B02689A4202D1F2
:1015C000064AD1601060064B02689A4203D1034A72
:1015D0001032D1601060704700A000400C00002461
:1015E00000A400402DE9F05FCF4D164600220446CE
:1015F00010461746C5F8082007EB870CCCEB871C74
:1016000004EB8C0CDCF82CC5BCF1000F01DCCCF138
:10161000000C7F1C042F6044EEDBB0F57A6FA860ED
:101620002CDC2878401C40B22870052804DB0120FF
:10163000687005222A7000E06A7040F6B859BA480E
:10164000C9F1000B93F800C040F2BD4841F2380ADE
:10165000B0F90470B54890F864237842BCF1010FEA
:101660000ED05B78012B0BD0BCF1000F01D0002B0A
:101670007ED1002A7DD0012A7CD0CDE02A70DBE724
:1016800012B1012A17D030E000EE107A91ED261A3F
:1016900000EE900AB8EEC00AF8EEE00A21EE000A69
:1016A000BDEEC00A10EE100AA4F8500991ED270A09
:1016B00020EE200A13E000EE100AD1ED270AF8EE22
:1016C000C01AB8EEC01A20EEA10ABDEEC00A10EE94
:1016D000100AA4F8500991ED260A20EE010ABDEE89
:1016E000C00A10EE100AA4F852099148B0F852004E
:1016F000322808D03C2815D050284FF461613DD0E5
:10170000642848D02CE0B4F95029404640F68C219A
:10171000A4F85419824201DDA4F85009B4F9502903
:1017200084490EE0B4F950294FF4F46040F6B83122
:10173000A4F85419824201DDA4F85009B4F95029E3
:101740007D498A4201DAA4F85019B4F9522982423B
:101750002EDC00BFB4F95209884201DAA4F852190C
:1017600096ED270A754A76497648B1EE400A02E0BE
:10177000D7E020E036E00AF021FBA5E0B4F95029DB
:101780004846A4F85419824201DDA4F8500959468C
:10179000B4F95029D5E7B4F950295046A4F85419A2
:1017A000824201DDA4F85009B4F950296649C8E71E
:1017B000A4F85209CEE700EE107A91ED261A00EE59
:1017C000900AB8EEC00AF8EEE00A21EE000ABDEE7B
:1017D000C00A10EE100AA4F8500991ED270A20EE75
:1017E000200A13E000EE100AD1ED270AF8EEC01A25
:1017F000B8EEC01A20EEA10ABDEEC00A10EE100A23
:10180000A4F8500991ED260A20EE010ABDEEC00AA7
:1018100010EE100AA4F85209B6F99200D6ED270A84
:1018200000EE100AB8EEC01A9FED480A04F59B605E
:10183000FFF792F8A4F8540996ED270A3F4A404969
:101840004048B1EE400A0AF0B9FA0A98407A18BB4B
:10185000687808BB3648B0F85200322806D03C28D9
:101860001BD0502837D0642848D02DE0B4F9500957
:101870004146884201DDA4F85019B4F950292D4899
:1018800033E000BFA4F8500931E000BFB4F95219A9
:10189000814219DAA4F8520916E0B4F950194FF44C
:1018A000F460814201DDA4F85009B4F950292249BD
:1018B0002EE000BFA4F850192CE000BFB4F9520983
:1018C000884201DAA4F85219BDE8F05F174A1C49B2
:1018D0001C480AF091BCB4F950094946884201DD20
:1018E000A4F850195846B4F950298242CADBB4F919
:1018F00052298A42CADDA4F85219C7E7B4F950192F
:101900005046814201DDA4F85009B4F950290E492E
:101910008A42CFDBB4F952298242CFDDA4F85209C2
:10192000CCE7BDE8F09F00005C01002428220024E1
:10193000340F002443FBFFFF60F8FFFFF016002484
:101940001412002490250024C8EFFFFF00000000BF
:10195000014801F063BD0000D80B0024014801F0EC
:101960005DBD0000500C0024014801F057BD00008F
:10197000C80C0024014801F051BD0000400D0024B6
:10198000014801F04BBD0000B80D0024014801F0F2
:1019900045BD0000300E0024014801F03FBD0000AD
:1019A000A80E0024014801F039BD0000F809002408
:1019B000014801F033BD0000700A0024014801F025
:1019C0002DBD0000E80A0024014801F027BD0000F9
:1019D000600B0024264A016891422CD0254A91428E
:1019E00029D0254A914226D0244A914223D0244A24
:1019F000914220D0234A91421DD0234A91421AD0CD
:101A0000224A914217D0224A914214D0214A91424F
:101A100011D0214A91420ED0204A91420BD0204A47
:101A2000914208D01F4A914205D01F4A914202D0EC
:101A30001E4A914217D11E4BCAB2103AA3FB023282
:101A40001209DFF870C002F007031CF80330C36509
:101A5000032A04D96FF30901091D816506E06FF3BC
:101A60000901816502E021F0FF018165806D704709
:101A7000100002402800024040000240580002408E
:101A80007000024088000240A0000240B8000240FE
:101A9000100402402804024040040240580402405E
:101AA0007004024088040240A0040240B8040240CE
:101AB000ABAAAAAAC40F010801680123DFF894C0E9
:101AC000CAB261451BD0DFF890C0614517D0DFF87E
:101AD0008CC0614513D0DFF888C061450FD0DFF8B6
:101AE00084C061450BD0DFF880C0614507D0DFF8C6
:101AF0007CC0614503D0DFF878C0614511D1A2F107
:101B000008011C4AA2FB012109091B4A02EB8102C0
:101B100002661A4A426601F01F0103FA01F181666A
:101B20007047DFF85CC0103AACFB02C21209DFF864
:101B300054C06144A82900D80832134901EB82013E
:101B400001661249416602F01F0103FA01F1816644
:101B500070470000085402581C5402583054025870
:101B600044540258585402586C5402588054025835
:101B700094540258CDCCCCCC00580258805802580E
:101B8000ABAAAAAAF0FBFDBF0008024080080240F1
:101B900001794A1E072A28D8144B0168994214D0AB
:101BA000134B994211D0134B99420ED0124B9942CC
:101BB0000BD0124B994208D0114B994205D0114BD2
:101BC000994202D0104B994206D1104901EB820193
:101BD000C1660F49016705E00E4901EB8201C1664C
:101BE0000D4901670121914041677047085402582F
:101BF0001C54025830540258445402585854025845
:101C00006C54025880540258945402580059025897
:101C10004059025800090240400902400146002094
:101C20008B698A6A002B0FD0B3F5005F1DD08AB391
:101C3000012A30D0022A2ED0032A04D1C96A11F019
:101C4000807F00D0012070471AB1012A07D0022AF4
:101C5000F9D1C96A11F0807FF5D001207047C96AB7
:101C6000B1F1C07FFAD1012070475AB1012A0BD0DF
:101C7000022A07D0032AF7D1C96AB1F1C07FF3D194
:101C80000120704701207047C96A11F0807FFAD0A7
:101C900001207047FFE70120704700002DE9F04F59
:101CA000846D794ED0F800C0784FDFF8E481B445F8
:101CB000DFF8E091DFF8E0A1DFF8E0B1784D4FD038
:101CC000BC454DD0C4454BD0CC4549D0D44547D078
:101CD000DC4545D0DFF8CCE1F44541D0AC453FD000
:101CE000DFF8C4E1F4453BD0DFF8C0E1F44537D07C
:101CF000DFF8BCE1F44533D0DFF8B8E1F4452FD08C
:101D0000DFF8B4E1F4452BD0DFF8B0E1F44527D09B
:101D1000DFF8ACE1F44523D0DFF8A8E1F4451FD0AB
:101D2000DFF8A4E1F4451BD0DFF8A0E1F44517D0BB
:101D3000DFF89CE1F44513D0DFF898E1F4450FD0CB
:101D4000DFF894E1F4450BD0DFF890E1F44507D0DB
:101D5000DFF88CE1F44503D0DFF888E1F44510D1D9
:101D6000D0F864E0D0F868C0CEF804C0D0F86CC0F9
:101D7000BCF1000F05D0D0F870E0D0F874C0CEF8F8
:101D800004C0D0F800C0B44526D0BC4524D0C4451A
:101D900022D0CC4520D0D4451ED0DC451CD0414EAD
:101DA000B44519D0AC4517D03F4DAC4514D03F4D8C
:101DB000AC4511D03E4DAC450ED03E4DAC450BD0A0
:101DC0003D4DAC4508D03D4DAC4505D03C4DAC45F6
:101DD00002D03C4DAC4523D190F85CC03F250CF0BF
:101DE0001F0C05FA0CFCC4F808C0D0F800C0DCF8E1
:101DF000004024F48024CCF80040D0F800C0CCF897
:101E000004308368402B05D0036899600068C26085
:101E1000BDE8F08F03689A600068C160BDE8F08F8C
:101E2000294DAC4514D0294DAC4511D0284DAC45B9
:101E30000ED0284DAC450BD0274DAC4508D0274DD2
:101E4000AC4505D0264DAC4502D0264DAC45E5D17C
:101E500090F85CC001250CF01F0C05FA0CFCC4F8CE
:101E600004C0D0F800C0CCF804308368402B05D003
:101E7000036899600068C260BDE8F08F03689A60EB
:101E80000068C160BDE8F08F1000024028000240E9
:101E900040000240580002407000024088000240AA
:101EA000B8000240A0000240100402402804024092
:101EB000400402405804024070040240880402407A
:101EC000A0040240B8040240085402581C540258AE
:101ED0003054025844540258585402586C54025812
:101EE00080540258945402584FF480624280828099
:101EF0000323C280002102818372C37202800922FF
:101F0000C18101824182A0F8901080F8321080F8DF
:101F1000331080F8381080F8351080F8361080F8CB
:101F20003A1080F83B1080F837109FED070A80F8D0
:101F3000341080F8391080ED260A80ED270A80F8E9
:101F4000A02080F8A210704700000000854AF0B57C
:101F500092ED010AF7EE000A04464FF4A56630EE52
:101F6000200A0125002082ED010A84F888500A88A1
:101F7000C2F30A03A3F5B672B24200D801204F782B
:101F80008A78FF0847EA4217C7F30A07A7F5B6772A
:101F9000B74200D8401C91F803C00F79920942EA79
:101FA0008C0242EA8722C2F30A02A2F5B672B2425A
:101FB00000D8401C4A797F0847EAC217C7F30A07CE
:101FC000A7F5B677B74200D8401CB5EB921F07D0F3
:101FD0000225B5EB921F03D00325B5EB921F00D16C
:101FE000401CC2F30115012D05D0022D03D06FEA6C
:101FF0001212920700D1401C06287CD15A48007862
:1020000000B963804FF480604A788B78D20842EA46
:102010004312C2F30A05A5808A78CB780E7992091B
:1020200042EA830242EA8622C2F30A02E2800B7984
:102030004E795B0843EAC613C3F30A0323814E7942
:10204000B609A6724E79C6F30116E6720E8AC6F379
:102050000A0626806688A6F2FD36072E00D260802A
:10206000A5F2FD35072D00D2A080A2F2FD32072A8D
:1020700000D2E080A3F2FD33072B00D2208146F28C
:10208000A813B1F90600E081B1F908209842228234
:1020900048896082087B2075487B607500DDE3819C
:1020A000B4F90E503148854200DAE0819A4200DDF1
:1020B0002382B4F91020824200DA2082C88920836A
:1020C000887B00F00100A076887BC0F34000207779
:1020D000887BC0F38000E076887BC0F3C000607727
:1020E000C87BC00984F82700C87BC0F3801084F83F
:1020F0002200C87B00E030E0C0F3401084F82500E7
:10210000C87BC0F3001084F82900C87BC0F3C0006E
:1021100084F82800C87BC0F3800084F82400C87BC2
:10212000C0F3400084F82300C87B00F0010084F86D
:102130002600887BC00984F82100887BC0F38010CA
:1021400084F82000887BC0F34010E077887BC0F3E0
:102150000010A077204609F037F9002084F88800A5
:10216000F0BD0000241600245E010024589EFFFFED
:102170002DE9F041104C86B0114E0F460F4D0A4626
:10218000009680460F4B01460F48CDE90154FFF7FA
:10219000DDFE0E483A460E4900960A4BCDE9031083
:1021A00009484146CDE9015407F0B4FD0949002032
:1021B000088006B0BDE8F081582F00249025002447
:1021C00008170024F016002414120024B817002465
:1021D00038170024DA15002470470000B0F5805F3E
:1021E00006DA00F58052914209DDA1F5005105E0C3
:1021F000A0F58052914202DA01F5005109B2081AA5
:1022000000EE100ADFED030AB8EEC00A20EE200A45
:1022100070470000ACFF333D70470000014802F0FA
:1022200005BA000054030024014802F0FFB9000081
:10223000F4030024416B0268D2F884306FF38F03FB
:1022400043EA8103C2F884300268D2F88430B0F8DF
:1022500038C023F47F0343EA0C43C2F88430826B16
:1022600011440268D2F888306FF38F0343EA810388
:10227000C2F888300268D2F88830B0F83CC023F445
:10228000FE0343EA0C43C2F88830C26B01EB420103
:102290000268D2F8A0306FF38F0343EA8103C2F8DB
:1022A000A0300268D2F8A030B0F840C023F4FE039A
:1022B00043EA0C43C2F8A030436C026C02FB0311EA
:1022C0000268D2F8B0306FF38F0343EA8103C2F89B
:1022D000B0300268D2F8B030B0F848C023F4FE0342
:1022E00043EA0C43C2F8B030C36C826C02FB0311AA
:1022F0000268D2F8AC306FF38F0343EA8103C2F86F
:10230000AC30436D026D02FB03110268D2F8F0306D
:102310006FF38F0343EA8103C2F8F0300268D2F80A
:10232000F030B0F858C023F47C1343EA0C43C2F8F1
:10233000F030826D01EB42020168D1F8C0306FF3DA
:102340008F0343EA8202C1F8C0200168D1F8C0209F
:10235000B0F85C3022F47C1242EA0342C1F8C0209B
:102360000168D1F8C02090F8603022F07C5242EA37
:102370000362C1F8C020416B294A02EB8101C166AA
:10238000826B01EB82020267C36B02EBC3024267FE
:10239000D0F844C0036C03FB0CF302EB83028267AA
:1023A000D0F84CC0836C03FB0CF302EB8302C267D2
:1023B000D0F854C0036D03FB0CF302EB8302C0F8AA
:1023C0008020836D02EBC303C0F88430D0F85CC07A
:1023D000826E0CFB02FC03EB8C03C0F88830D0F853
:1023E00060C00CFB02F203EB8202C0F890200D4BA0
:1023F0009A420AD9D0F89C1041F02001C0F89C10F4
:10240000032180F89810012070478A4206D90022E3
:102410000A60091DD0F890308B42F9D8002070472F
:1024200000AC0040FCD3004070B4D1F808C00C6987
:102430004D6844EA0C04D1F800C0002D43D04CF0A4
:10244000804C44EA0C0C8D69CC6991F820602C43D7
:102450004D6945EA06652C43CD682C43D0F884507D
:10246000806E00FB03F005EB8000C0F800C0001D8B
:102470000460031D0020D1F80CC0144C04EB1C4C6C
:102480009CF800C0BCF1000F1BD902EB000C155CDE
:102490009CF8036045EA06659CF802609CF801C060
:1024A000360446EA0C2C45EA0C0CC3F800C01B1D90
:1024B000001DD1F80CC004EB1C4C9CF800C08445F6
:1024C000E3D870BC704744EA8C4CBCE7680F010845
:1024D00070EE600A2B4A2C4910EE903ADFED2B1A71
:1024E000934202DD70EEE10A05E010EE903A8B4275
:1024F00001D970EEA10AB5EEC00AF1EE10FA9FED17
:10250000242A02DB30EEC21A06E0B5EEC00AF1EE74
:1025100010FA0ED230EE821A11EE103A934202DD1A
:1025200031EE611A05E011EE102A8A4201D931EE2E
:10253000211AF5EEC00AF1EE10FAF1EE602AB5EEBE
:10254000C01AF1EE411A70FEA20AF1EE10FA31FE45
:10255000211AF4EEC10AF1EE10FA11DDB5EEC00A4F
:10256000F1EE10FA02DB30EE420A06E0B5EEC00AE8
:10257000F1EE10FA01D230EE020A0121017070472B
:102580000021FBE700003443000034C30000B443E3
:10259000000034432DE9F04717460C46054606F087
:1025A00061FDC14E002195F82C2005F57978BD4BD1
:1025B00005F20C4906F12000DFEDBC1A012A0BD10F
:1025C000DFF8ECC2BCF80CC0BCF5FA7F04D993F874
:1025D00089C0BCF1010F06D093F88930002B7DD063
:1025E000002AFCD03EE1338A4FF47A725B1C9BB226
:1025F00033829342718200D93282AB4B97F82870B4
:102600002633012F03D0F7880780378902E07789C6
:102610000780B7891F800788308A474397FBF2F706
:1026200000EE107AB8EEC00A84ED000A1B885B4207
:10263000434393FBF2F000EE100AB8EEC00A84EDBB
:10264000010A287E10B1012819D01AE09948B388F0
:10265000B0F85A209848D21A00EE102AD0ED010A9C
:10266000B8EEC00AF4EEC00AF1EE10FA02DB69809F
:10267000017306E0F18901226980027301E0F089AB
:102680006880884A8D498E4807F0D4FEB5F98E04DB
:10269000DFED8C0A00EE100A8B49B8EEC01A96EDF9
:1026A000050A61EE200A20EE800A86ED070AB5EEE3
:1026B000C00AF1EE10FAF1EE400A30FE200A10EEE8
:1026C000100A884201DAC6ED071A94ED050AD6ED24
:1026D000070A70EE200AC4ED050A00E06AE07749B7
:1026E000774894ED060A07F043FE94ED000AB5F929
:1026F0003E000022BDEEC00A00EE900A10EE100A65
:10270000B8EEE00A01B2404600F0EEF884ED0E0AA1
:1027100094ED010AB5F92A010122BDEEC00A00EECE
:10272000900A10EE100AB8EEE00A01B2484600F036
:10273000DBF8664884ED0F0A90F82800012812D0D3
:1027400094ED020AB5F98E040222BDEEC00A00EE35
:10275000900A10EE100AB8EEE00A01B205F5AE607C
:1027600000F0C2F811E0B5F98E04D4ED050A01EECF
:10277000100A94ED060A05F5B360B8EEC11AFEF72B
:10278000A1F800EE100AB8EEC00A514910EE100A86
:1027900084ED100A884203DD9FED4E0A84ED100A95
:1027A00010EE100A4C4988425CD99FED4C0A84ED2A
:1027B000100A57E0424A3182D18F11B9B2F82A117A
:1027C000F1B30088718A00EE100A00EE901A9FEDB6
:1027D000441BB8EE402BB8EE600B02EE010BBCEED2
:1027E000C00B10EE101A89B27182884200D8708234
:1027F0000022718A401A00EE100AB8EEC00A84ED79
:10280000000A84ED010ABDEEC00AB5F93E1010EED3
:10281000100A00EE101A01B24046B8EEC00A00F0ED
:1028200063F884ED0E0A94ED010AB5F92A01BDEEB4
:10283000C00A00EE900A10EE100AB8EEE00A00E0BE
:1028400007E001B24846012200F04EF884ED0F0A7D
:1028500008E00020411C04EB8002C8B20328C2ED4E
:102860000E1AF7D394ED0E0A05F13400BDEEC00A3E
:1028700010EE101A08F0C8FB94ED0F0A05F59070E1
:10288000BDEEC00A10EE101A08F0BEFB94ED100A5F
:1028900005F28440BDE8F047BDEEC00A10EE101A04
:1028A00008F0B2BB14120024240100240000000030
:1028B000200F0024340F0024F80000249016002478
:1028C000582F00246F12833A0AD7233C081700249C
:1028D00000A00C4600A00C4600A00CC600A00CC630
:1028E000613255302AA9333F022AF0EE400A10B572
:1028F0009FED4E0ADFED4E1A9FED4E2A25D07DD278
:1029000001EE101A4D4BD0ED002AB8EEC11A03EBC0
:102910008202494C71EE600A10EE903A20EEA21A43
:10292000C0ED030AA34280ED041A04DB10EE903AD6
:10293000434CA34207D2D0ED012A92ED001A00EEDB
:10294000A21A82ED001AE9B345E001EE101A3B4BE2
:10295000B8EEC11A71EE600AC0ED030A90ED001ADC
:1029600020EE811A80ED041A93ED021AD0ED012AAF
:1029700000EEA21A83ED021A11B9194681ED020A7E
:102980002E49304A89684161914201DDC0ED051A46
:102990002D4A4169914201D980ED052A90ED040A42
:1029A000D0ED050A294A30EE200A10EE101A80ED0B
:1029B000070A914203DD9FED260A80ED070A10EE1B
:1029C000101A00E005E0234A91422DD99FED220A1A
:1029D00028E082ED000A1168204A4161914201DD40
:1029E000C0ED051A1E4A4169914201D980ED052AC0
:1029F0001C4A90ED040AD0ED050A00E014E030EE28
:102A0000200A10EE101A80ED070A914203DD9FEDB7
:102A1000160A80ED070A10EE101A144A914203D9E3
:102A20009FED130A80ED070A10BD000000000000B2
:102A300000007A4400007AC40000484208160024CE
:102A4000000048C200009644000096C400401C46A6
:102A500000401C4600401CC600401CC600007A44D2
:102A600000007AC40060EA460060EA460060EAC6F8
:102A70000060EAC610B50A4904460A4809F000F9A0
:102A800094F8340001280AD194F83100012806D0C6
:102A9000002084F8330084F8380084F8370010BD33
:102AA000582F00241412002410B558B1084C491EA8
:102AB0000BD310F8013B5340DBB234F8133083EAF8
:102AC0001222F4E74FF6FF7010BD104610BD000053
:102AD000660D010810B558B1084C491E0BD310F80B
:102AE000013B5340DBB234F8133083EA1222F4E79F
:102AF0004FF6FF7010BD104610BD0000660A0108B9
:102B000010B5054C04E000BF10F8013B5340E25CF7
:102B1000491EF9D2104610BD660C010810B5054CCF
:102B200004E000BF10F8013B5340E25C491EF9D2BB
:102B3000104610BD6609010810B5344C0221A06A88
:102B4000401CA062324807F097FDA06AB0F57A7F7A
:102B50005BD92F492F4808F071FD2D4902222D48DD
:102B600006F0BAFE2B4A2A4992ED3A0BB1F90A3027
:102B7000BDEEC00B10EE100A00B2181A206092EDE4
:102B8000360BB1F906200028BDEEC00B10EE101A6E
:102B900009B2A2EB0101616001DD024600E04242A0
:102BA0000A2A17DD00EE100A9FED1B1BB8EEC02BA2
:102BB00094ED080A22EE011BB7EEC00A21EE000BCD
:102BC000B7EEC00B84ED040AD4ED020A30EE800AA1
:102BD00084ED020A002901DD084600E048420A2887
:102BE00013DD00EE101ADFED0E0AB8EEC01A94EDF8
:102BF000070A61EE200A20EE800A84ED060AD4ED71
:102C0000050A30EE800A84ED050A10BDA0020024FA
:102C1000001F0024301800242D431CEBE2361A3F1D
:102C200017B7D13810B507F01FFD07F0C3FC0349F3
:102C3000002088622C31886210BD000074020024DC
:102C40002DE9F74F4FF47A770D4606462DED048BAC
:102C500084B0DFED6D8A6D4805224FF0000B3C46D5
:102C6000B0EE689AB0EE688AC16A91FBF2F0CDE9E5
:102C700001B0CDF800B0B5F906A0B5F90890B5F9E6
:102C80000A80A1E00A99284607F0F6FCB5F906107B
:102C900000EE10AA00EE901AB8EEC01BB8EEE00BE2
:102CA00086ED240B30EE411BB5F90800B5EEC01BD4
:102CB000F1EE10FA01EE100A03EE10AAB8EEC12BE5
:102CC000B8EEC33B86ED262BB5F90A0001EE100ADB
:102CD000B8EEC11B86ED281B02DD30EE434B01E050
:102CE00033EE404B02980A3003EE100AB8EEC33BB5
:102CF000B4EEC34BF1EE10FA01DB0BF1010B03EE66
:102D0000109AB8EEC33B32EE433BB5EEC03BF1EE5A
:102D100010FA03EE109AB8EEC33B02DD32EE434BDD
:102D200001E033EE424B03EE100AB8EEC33BB4EEC3
:102D3000C34BF1EE10FA02DB0199491C019103EE3D
:102D4000108AB8EEC33B31EE433BB5EEC03BF1EE2B
:102D500010FA03EE108AB8EEC33B02DD31EE434BAE
:102D600001E033EE414B03EE100AB8EEC33BB4EE84
:102D7000C34BF1EE10FA02DB0098401C0090B7EE56
:102D8000C93ABBF1320FB7EEE84AB7EEC85A30EE97
:102D9000030B32EE042B31EE051BB7EEC09BF7EEB2
:102DA000C28BB7EEC18B05DA0198322802DA00989F
:102DB000322809DB1548C16A491CC162012004B0F0
:102DC000BDEC048BBDE8FE8F7F1EBFF45BAF00EE51
:102DD000104A0020B8EEC02AF8EEC01AF8EEC00A79
:102DE00089EE021A88EEA12AB7EEC11A86ED361BCB
:102DF00088EE200AB7EEC22A86ED382BB7EEC00A5D
:102E000086ED3A0BDBE7000000000000CC02002456
:102E10002DE9F84F044602F083F900905CB194F874
:102E2000350002280AD080206065002084F8340034
:102E30000120BDE8F88F0120BDE8F88FB649206871
:102E4000B64EB74F8842DFF8DC82DFF8DC92DFF85D
:102E5000DCA2DFF8DCB226D0B04224D0B84222D0C7
:102E6000404520D048451ED050451CD058451AD06A
:102E7000B04A904217D0B04A904214D0AF4A904224
:102E800011D0AF4A90420ED0AE4A90420BD0AE4A1B
:102E9000904208D0AD4A904205D0AD4A904202D04F
:102EA000AC4A90420AD1026822F01E0202602068F9
:102EB000426922F080024261256804E0026822F043
:102EC0000E0202602568206888423ED0B0423CD0A5
:102ED000B8423AD0404538D0484536D0504534D035
:102EE000584532D0934A90422FD0934A90422CD0EA
:102EF000924A904229D0924A904226D0914A9042DA
:102F000023D0914A904220D0904A90421DD0904ABE
:102F100090421AD08F4A904217D08F4A904214D0D4
:102F20008E4A904211D08E4A90420ED08D4A9042E5
:102F30000BD08D4A904208D08C4A904205D08C4AE2
:102F4000904202D08B4A904204D1206E026822F453
:102F50008072026070492068884226D0B04224D036
:102F6000B84222D0404520D048451ED050451CD004
:102F700058451AD06F49884217D06F49884214D0FB
:102F80006E49884211D06E4988420ED06D49884200
:102F90000BD06D49884208D06C49884205D06C49F5
:102FA000884202D06B49884204D1016821F00101B6
:102FB000016003E0016821F001010160286810F060
:102FC000010F14D002F0ACF80099401A05280AD974
:102FD00020206065032084F83500002084F8340048
:102FE0000120BDE8F88F286810F0010FEAD14A4AA5
:102FF00001212068904226D0B04224D0B84222D08D
:10300000404520D048451ED050451CD058451AD0C8
:10301000484B984217D0484B984214D0474B98429F
:1030200011D0474B98420ED0464B98420BD0464B9E
:10303000984208D0454B984205D0454B984202D063
:10304000444B98420AD1A06D4FF03F0C94F85C308D
:1030500003F01F030CFA03F3836007E0A06D94F8FC
:103060005C3003F01F0301FA03F3436020689042D1
:103070003ED0B0423CD0B8423AD0404538D0484526
:1030800036D0504534D0584532D02A4A90422FD0BD
:10309000294A90422CD0294A904229D0284A90426D
:1030A00026D0284A904223D0274A904220D0274A4F
:1030B00090421DD0264A90421AD0264A904217D0FC
:1030C000254A904214D0254A904211D0244A904279
:1030D0000ED0244A90420BD0234A904208D0234A73
:1030E000904205D0224A904202D0224A90420BD10F
:1030F000626EA06E5060E06E30B1026822F48072A1
:103100000260226F606F506084F83510002084F8F0
:103110003400BDE8F88F0000100002402800024093
:103120004000024058000240700002408800024007
:10313000A0000240B80002401004024028040240EF
:1031400040040240580402407004024088040240D7
:10315000A0040240B8040240085402581C5402580B
:103160003054025844540258585402586C5402586F
:1031700080540258945402582DE9F05F002808D07A
:1031800090F83510022907D0802141650120BDE863
:10319000F09F0120BDE8F09FDFF81CE20168874B3B
:1031A000DFF81CC27145874C874D884E884FDFF889
:1031B0002482DFF82492DFF824A2DFF824B2894ABF
:1031C00025D0994223D0614521D0A1421FD0A942E8
:1031D0001DD0B1421BD0B94219D0DFF80CE27145C5
:1031E00015D0DFF808E2714511D0DFF804E271452F
:1031F0000DD041450BD0494509D0DFF8F8E17145C4
:1032000005D0514503D0594501D0914232D14FF0FC
:10321000040E80F835E06848814221D099421FD0E1
:1032200061451DD0A1421BD0A94219D0B14217D08F
:10323000B94215D06C48814212D06C4881420FD0FF
:103240006B4881420CD041450AD0494508D06948B5
:10325000814205D0514503D0594501D0914204D156
:10326000086820F001000860A3E0086820F0010071
:1032700008609EE0D1F800E02EF00E0EC1F800E0EC
:10328000DFF834E10168714525D0994223D06145CA
:1032900021D0A1421FD0A9421DD0B1421BD0B942BA
:1032A00019D0DFF844E1714515D0DFF840E17145F0
:1032B00011D0DFF83CE171450DD041450BD04945B7
:1032C00009D0DFF830E1714505D0514503D05945AB
:1032D00001D0914206D1D1F800E02EF0010EC1F8E4
:1032E00000E005E0D1F800E02EF0010EC1F800E0AA
:1032F000DFF8C4E00168714539D0994237D06145A3
:1033000035D0A14233D0A94231D0B1422FD0B942F9
:103310002DD0354B99422AD0344B994227D0344B8B
:10332000994224D0414522D0494520D0314B994281
:103330001DD051451BD0594519D0914217D02E4A66
:10334000914214D02D4A914211D02D4A91420ED073
:103350002C4A91420BD02C4A914208D02B4A9142E0
:1033600005D02B4A914202D02A4A914218D1016ECF
:103370000A6822F480720A60816D90F85C2002F085
:103380001F0301229A404A60426E816E5160C16EF5
:1033900031B10A6822F480720A60026F416F516095
:1033A000012180F83510002180F83410016D01B141
:1033B00088470020BDE8F09F10000240280002402E
:1033C0004000024058000240700002408800024065
:1033D000A000024040040240580402408804024019
:1033E000A0040240B8040240B800024010040240A9
:1033F0002804024070040240085402581C54025829
:103400003054025844540258585402586C540258CC
:103410008054025894540258406D70472DE9F04F83
:1034200083B00446002002904FF41651FD48006816
:10343000B0FBF1F00190A56D2E682968FA4F206865
:10344000DFF8E8A3DFF8E8B3B842DFF8E883DFF895
:10345000E8932DD0524690422AD05A46904227D027
:10346000404525D0484523D0F44A904220D0F44A24
:1034700090421DD0F34A90421AD0F34A904217D09E
:10348000DFF8C8C3604513D0F14A904210D0DFF88E
:10349000C4E370450CD0F04A904209D0EF4A904204
:1034A00006D0EF4A904203D0EE4B984240F0408263
:1034B00094F85C10082201F01F0102FA01F1314278
:1034C00041D0B84228D0504526D0584524D0404558
:1034D00022D0484520D0D94988421DD0D8498842B9
:1034E0001AD0D849884217D0D749884214D0D74932
:1034F000884211D0D64988420ED0D64988420BD096
:10350000D549884208D0D549884205D0D449884257
:1035100002D0D449884203D1016801F0040102E0DD
:10352000016801F0080171B1016821F00401016036
:1035300094F85C0000F01F0002FA00F0A860606DD3
:1035400040F00100606594F85C0000F01F0101206C
:1035500000FA01F1314234D02068B84228D05045F9
:1035600026D0584524D0404522D0484520D0B34AE3
:1035700090421DD0B24A90421AD0B24A904217D01F
:10358000B14A904214D0B14A904211D0B04A904210
:103590000ED0B04A90420BD0AF4A904208D0AF4A0A
:1035A000904205D0AE4A904202D0AE4A90427DD1C0
:1035B000406910F0800F04D0A960606D40F00200F7
:1035C000606594F85C0000F01F01042000FA01F12E
:1035D000314234D02068B84228D0504526D05845D2
:1035E00024D0404522D0484520D0944A90421DD056
:1035F000934A90421AD0934A904217D0924A9042EE
:1036000014D0924A904211D0914A90420ED0914AE1
:1036100090420BD0904A904208D0904A904205D0F8
:103620008F4A904202D08F4A904245D1006810F0F4
:10363000020F04D0A960606D40F00400606594F84A
:103640005C0000F01F01102000FA01F1314259D056
:103650002068B84228D0504526D0584524D040454F
:1036600022D0484520D0754A90421DD0744A9042DD
:103670001AD0744A904217D0734A904214D0734AB9
:10368000904211D0724A90420ED0724A90420BD0B2
:10369000714A904208D0714A904205D0704A9042D7
:1036A00002D0704A904209D1006800E002E000F0C8
:1036B000080006E0006884E70068C0E7006800F0E2
:1036C0000400F8B1A9602068016811F4802F0DD0C2
:1036D000006810F4002F04D0A16C99B120468847EF
:1036E00010E0216C71B1204688470BE0016811F4AD
:1036F000807F03D1016821F008010160216C09B1CC
:103700002046884794F85C0000F01F01202000FA52
:1037100001F131426FD02068B84228D0504526D000
:10372000584524D0404522D0484520D0434A9042B5
:103730001DD0434A90421AD0424A904217D0424A82
:10374000904214D0414A904211D0414A90420ED04A
:10375000404A90420BD0404A904208D03F4A9042A3
:1037600005D03F4A904202D03E4A904203D10068C1
:1037700000F0100002E0006800F00200D8B3A96079
:1037800094F8350004280DD02068016811F4802FCA
:1037900037D0006810F4002F2ED0E16B59B32046CB
:1037A000884764E02068016821F016010160206804
:1037B000416921F080014161206C08B9A06C20B101
:1037C0002068016821F00801016094F85C003F2145
:1037D00000F01F0001FA00F0A860012084F8350015
:1037E000002084F83400216D00297BD003B02046EE
:1037F000BDE8F04F084737E0616CA9B32046884721
:1038000035E0016811F4807F09D1016821F01001D1
:103810000160012084F83500002084F83400E16B59
:1038200011B322E0040000241000024028000240EE
:1038300040000240580002407000024088000240F0
:10384000A0000240B80002401004024028040240D8
:1038500040040240580402407004024088040240C0
:10386000A0040240B804024001E020468847606D91
:10387000002837D0606D10F0010F51D0042084F87B
:1038800035002068B84228D0504526D0584524D06D
:10389000404522D0484520D0AB4988421DD0AB4995
:1038A00088421AD0AA49884217D0AA49884214D01F
:1038B000A949884211D0A94988420ED0A849884216
:1038C0000BD0A849884208D0A749884205D0A7490B
:1038D000884202D0A649884205D1016821F0010141
:1038E000016004E096E0016821F0010101602168B7
:1038F0000298019A401C0290904203D8086810F088
:10390000010FF5D1086810F0010F03D0032084F8EF
:10391000350002E0012084F83500002084F83400EE
:10392000E16C002976D003B02046BDE8F04F08478F
:10393000904B984214D0904B984211D08F4B9842A4
:103940000ED08F4B98420BD08E4B984208D08E4BA6
:10395000984205D08D4B984202D08D4B984259D158
:1039600003684FF0040A94F85C6006F01F060AFA38
:1039700006FA1AEA010F5AD013F0040F57D0C5F80F
:1039800004A013F4004F12D013F4803F07D0216C31
:1039900000293FD003B02046BDE8F04F0847A16C96
:1039A000002937D003B02046BDE8F04F084713F098
:1039B000200F34D12068B84227D07649884224D0DD
:1039C0007549884221D040451FD048451DD05E49E9
:1039D00088421AD05D49884217D05D49884214D088
:1039E0005C49884211D060450FD05C4988420CD0B8
:1039F00070450AD05B49884207D05B49884204D0B1
:103A0000904202D05A49884205D1016821F008014C
:103A1000016004E083E0016821F004010160216C91
:103A200000297CD003B02046BDE8F04F08474FF096
:103A3000020A0AFA06FA1AEA010F5FD013F0020F1F
:103A40005CD0C5F804A013F4004F12D013F4803FEB
:103A500007D0E16B002974D003B02046BDE8F04FD9
:103A60000847616C00296CD003B02046BDE8F04FD8
:103A7000084713F0200F39D12068B84227D04549B4
:103A8000884224D04449884221D040451FD048452F
:103A90001DD02D4988421AD02C49884217D02C4974
:103AA000884214D02B49884211D060450FD02B4951
:103AB00088420CD070450AD02A49884207D02A494A
:103AC000884204D0904202D02949884204D101683A
:103AD00021F01401016003E0016821F00A01016096
:103AE000012084F83500002084F83400E16B0029BF
:103AF00027D003B02046BDE8F04F08470822B24067
:103B00000A421ED013F0080F1BD0016821F00E01ED
:103B1000016094F85C0000F01F01012000E010E05B
:103B200000FA01F16960606584F83500002084F8CE
:103B30003400E16C002904D003B02046BDE8F04F0A
:103B4000084703B0BDE8F08F88000240A0000240A3
:103B5000B800024010040240280402404004024021
:103B6000580402407004024088040240A00402404D
:103B7000B8040240085402581C54025830540258E9
:103B800044540258585402586C54025880540258F5
:103B90009454025828000240400002402DE9F05F92
:103BA000044601F0BDFA0646002C6AD0DC4F022222
:103BB00020680025DFF86C83DFF86C93B842DFF8EB
:103BC0006CA3DFF86CB328D0DA49884225D0404591
:103BD00023D0484521D050451FD058451DD0D64947
:103BE00088421AD0D549884217D0D549884214D086
:103BF000D449884211D0D44988420ED0D349884252
:103C00000BD0D349884208D0D249884205D0D24946
:103C1000884202D0D14988427ED184F8352084F888
:103C20003450B84228D0C349884225D0404523D0DB
:103C3000484521D050451FD058451DD0BE49884227
:103C40001AD0BE49884217D0BD49884214D0BD4918
:103C5000884211D0BC4988420ED0BC4988420BD062
:103C6000BB49884208D0BB49884205D0BA4988423E
:103C700002D0BA49884207D1016821F001010160F0
:103C800006E00120BDE8F09F016821F0010101601C
:103C90002068006810F0010F11D001F041FA801B7C
:103CA000052807D920206065032084F8350001200D
:103CB000BDE8F09F2068006810F0010FEDD1226888
:103CC0001068A7490840E368A168D4F814C01943F4
:103CD000236943EA0C031943A3691943E3691943B0
:103CE000236A19430843616A042903D1236BE16AFB
:103CF000194308439B4909686FF30F01B1F1005F55
:103D000011D36168A1F12903052B0AD9163B032BB6
:103D100007D9083B012B00E02CE002D94F390329D9
:103D200001D840F4801010602068406920F007013D
:103D3000606A40EA010604280ED1A06A0643E06AE0
:103D400050B12046FDF76AFF30B140206065012088
:103D500084F83500BDE8F09F206846612046FDF7F5
:103D600039FE94F85C103F2201F01F0102FA01F1C4
:103D700081605BE07C49884214D07C4B984211D032
:103D80007B4B98420ED07B4B98420BD07A4B98429B
:103D900008D07A4B984205D0794B984202D0794BA3
:103DA00098427DD188420CD07049884209D0704930
:103DB000884206D06F49884203D06F49884200D0BC
:103DC0006E4984F8352084F8345002686FF310127D
:103DD000A168402979D0802979D00021E36841EA9F
:103DE000D301236941EAD301636941EAD301A3699D
:103DF00041EAD301E36941EAD301236A41EA13119D
:103E0000114301606049206801446048A0FB011033
:103E100000098000E0652046FDF7DCFD94F85C10A9
:103E2000012201F01F0102FA01F141602068B8424D
:103E300042D0404988423FD040453DD048453BD0E4
:103E4000504539D0584537D03B49884234D03B495A
:103E5000884231D03A4988422ED03A4988422BD004
:103E60003949884228D03949884225D03849884282
:103E700022D0384988421FD0374988421CD0374960
:103E8000884219D03849884216D03849884213D020
:103E90003749884210D0374988420DD0364900E072
:103EA00018E0884208D03549884205D03449884214
:103EB00002D0344988422CD12046FDF7FDFDA06890
:103EC00080280FD00FE000E001E0102186E74FF4DA
:103ED000804183E740206065032084F8350001209D
:103EE000BDE8F09F6560216E20790860616EA06E6C
:103EF00048606068401E072808D82046FDF748FE45
:103F0000E06E0560216F606F486002E0E56625673E
:103F100065676565012084F835000020BDE8F09FE5
:103F20001000024040000240580002407000024071
:103F30008800024028000240A0000240B800024071
:103F40001004024028040240400402405804024089
:103F50007004024088040240A0040240B8040240F9
:103F60003F8010FE0010005C085402581C54025898
:103F70003054025844540258585402586C54025851
:103F80008054025894540258F8ABFDA7CDCCCCCC49
:103F90002DE9F84F044600200090002C16D094F82C
:103FA0003400012815D0012084F8340094F835C07D
:103FB0000020BCF1010F0FD04FF40061616584F85F
:103FC0003400012000900098BDE8F88F0120BDE882
:103FD000F88F0220BDE8F88F4FF0020C84F835C04E
:103FE0006065DFF82CC220688A4D8B4E60458B4F90
:103FF000DFF82C82DFF82C92DFF82CA2DFF82CB24D
:104000002DD0A8422BD0B04229D0B84227D040456D
:1040100025D0484523D0504521D058451FD0DFF842
:1040200010C260451BD0DFF80CC2604517D0DFF826
:1040300008C2604513D0DFF804C260450FD0DFF836
:1040400000C260450BD0DFF8FCC1604507D0DFF847
:10405000F8C1604503D0DFF8F4C1604506D1D0F85F
:1040600000C02CF0010CC0F800C005E0D0F800C082
:104070002CF0010CC0F800C02046FDF70FFE64498B
:104080002068884225D0A84223D0B04221D0B8422F
:104090001FD040451DD048451BD0504519D058452C
:1040A00017D0634A904214D0624A904211D0624ABB
:1040B00090420ED0614A90420BD0614A904208D0A3
:1040C000604A904205D0604A904202D05F4A9042D6
:1040D0000DD1026822F01E0242F016020260206C2E
:1040E00090B12068026842F0080202600CE00268A9
:1040F00022F00E0242F00A020260206C20B1206819
:10410000026842F004020260206888423DD0A84262
:104110003BD0B04239D0B84237D0404535D0484581
:1041200033D0504531D058452FD0414A90422CD001
:10413000404A904229D0404A904226D03F4A90427D
:1041400023D03F4A904220D03E4A90421DD03E4A62
:1041500090421AD03D4A904217D03D4A904214D026
:104160003C4A904211D03C4A90420ED03B4A904289
:104170000BD03B4A904208D03A4A904205D03A4A86
:10418000904202D0394A90420ED1206E026812F459
:10419000803F03D0026842F480720260E06E18B182
:1041A000026842F4807202602068884225D0A842EA
:1041B00023D0B04221D0B8421FD040451DD0484541
:1041C0001BD0504519D0584517D01949884214D0F2
:1041D0001849884211D0184988420ED017498842A0
:1041E0000BD01749884208D01649884205D0164995
:1041F000884202D01549884204D1016841F001018A
:104200000160E0E6016841F001010160DBE60000C9
:1042100010000240280002404000024058000240C6
:104220007000024088000240A0000240B800024036
:104230001004024028040240400402405804024096
:104240007004024088040240A0040240B804024006
:10425000085402581C54025830540258445402580E
:10426000585402586C5402588054025894540258BE
:1042700070B5044600F054FF0546B4F1FF3F02D08C
:1042800004480078044400F04BFF401BA042FAD3DE
:1042900070BD00004003002490F89830012B09D035
:1042A000022B07D0D0F89C1041F00201C0F89C10FE
:1042B000012070470368D3F858C01CEA010F06D1EB
:1042C000D3F85CC04CF0010CC3F85CC008E0D3F834
:1042D00058C031EA0C0C26D04FF0030CC3F85CC078
:1042E00011F4007F06D00368D3F8E0C04CEA020C5A
:1042F000C3F8E0C011F4806F06D00368D3F8E4C0BF
:104300004CEA0202C3F8E4200068426D21F4401335
:1043100023F040431A4342650648026842EA91711D
:10432000016000207047D3F85CC04CF0020CC3F869
:104330005CC0D5E714A8004070B5044694F8980016
:10434000022807D0D4F89C0040F00800C4F89C0074
:10435000012070BD2068D0F8C03013F07C5F0CD015
:10436000D0F8C43013F4001F0FD0D4F89C0040F4F0
:104370000070C4F89C00012070BDD4F89C0040F08F
:104380002000C4F89C00012070BDD0F8C400C0F328
:10439000044520462B46FEF747F821680120A84037
:1043A000C1F8D000C4F89400002070BD704790F8A8
:1043B0009820012A09D0022A07D0D0F89C1041F099
:1043C0000201C0F89C1001207047CA680B6893B1C5
:1043D000072A0B6943EA42732ED091F808C04A6954
:1043E00042EA8C724968006F00EBC10003604260D2
:1043F0004FF000007047072A12D091F808C04FEA2A
:10440000C2624B6943EA8C73B1F810C042EA0C42B5
:1044100043EA02024968C06E00EB81000260E7E7F0
:104420000B8A4FF0605C8A6942EA0342CB694CEA2E
:10443000032342EA0302EDE78A69D3E77047704736
:10444000F0B44FF0000C90F89840022C08D0D0F84F
:104450009C1041F00801C0F89C10F0BC012070478E
:1044600040294FF000450DD0412940D0046D8C42C9
:1044700073D8D0F89C1041F02001C0F89C10F0BC1B
:10448000012070470468D4F8A06016F4FE0F1CD019
:10449000D4F8A46016F07F0F20D0D4F8A46016F0F2
:1044A000807F06D0D4F8A060B5EBD67F01D14FF065
:1044B000010CD4F8A440C4F30524A444456C446F13
:1044C00005FB0CF504EB85044DE0D0F89C1041F0A1
:1044D0002001C0F89C10F0BC01207047D0F89C105F
:1044E00041F48071C0F89C10F0BC01207047046852
:1044F000D4F8B06016F4FE0F1CD0D4F8B46016F0F7
:104500007F0F20D0D4F8B46016F0807F06D0D4F8A6
:10451000B060B5EBD67F01D14FF0010CD4F8B440B8
:10452000C4F30524A444C56C846F05FB0CF504EBAF
:10453000850418E0D0F89C1041F02001C0F89C10D0
:10454000F0BC01207047D0F89C1041F48071C0F895
:104550009C10F0BC01207047FFE7456DC46F05FB60
:1045600001F504EB8504256805F080455560EDB341
:10457000256825F060451560256805F000559560B3
:10458000256805F000451561241D2588ADB2D5616B
:10459000256805F47027D760256805F480155561F6
:1045A000256805F4001595612568C5F30665156253
:1045B0002568ED0F5562251D00241A4E06EB17479E
:1045C0003F78002F08D92F5D1F55641CD76806EB74
:1045D00017473F78A742F6D8402911D0412913D078
:1045E0000122202914D202FA01F100E003E0006860
:1045F000C0F8981013E02568C5F38A451560BBE73D
:104600000068C0F8A8C00AE00068C0F8B8C006E0BA
:10461000006801F01F0102FA01F1C0F89C100020AF
:10462000F0BC7047680F0108704700002DE9F05F8B
:104630000446BF4D28688007291D096800EA817774
:104640002068016D01F47041426D02EA0108016DBC
:1046500001F00F01426D02EA0109016D01F0F00164
:10466000426D02EA010A016D01F07151426D02EAE8
:104670000106016D01F06071426D02EA010B416DAE
:1046800011F4807F0AD0016D11F4807F06D0A91546
:104690000165002028602046FFF7C6FF2068416DB5
:1046A00011F4806F10D0016D11F4806F0CD0D0F830
:1046B000DC10D0F8E42011404FF480620265002045
:1046C0002860204600F060FB5FB1216827F44010AD
:1046D00020F040400865B80F286039462046FFF7B3
:1046E00065FEB8F1000F0CD0216828F4401020F0CE
:1046F000404008654FEA987028604146204600F027
:1047000045FBB9F1000F0CD0216829F4401020F0CE
:10471000404008654FEA997028604946204600F0FD
:10472000E5FABAF1000F0CD021682AF4401020F00D
:10473000404008654FEA9A7028605146204600F0D4
:1047400003FB2068416D11F4006F0BD0016D11F473
:10475000006F07D04FF400610165002028602046FB
:1047600000F015FB2068416D11F4007F10D0016D41
:1047700011F4007F0CD0D0F8D810D0F8E020114010
:104780004FF40072026500202860204600F0FDFA18
:104790002068416D11F4002F0BD0016D11F4002F32
:1047A00007D04FF40021016500202860204600F06A
:1047B0009BFA2068416D11F4803F0BD0016D11F41C
:1047C000803F07D04FF480310165002028602046EB
:1047D00000F0D9FA2068416D11F4802F0BD0016DE3
:1047E00011F4802F07D04FF480210165002028604C
:1047F000204600F0C7FA2068416D11F4003F0ED04A
:10480000016D11F4003F0AD04FF400310165002022
:104810002860D4F89C0040F08000C4F89C00BBF1F4
:10482000000F0CD021682BF4401020F040400865A8
:104830004FEA9B70286059462046FFF700FE66B19C
:10484000216826F4401020F040400865B00F286031
:10485000D4F89C003043C4F89C002068A0F180414B
:10486000B1F520415AD16068816811F0030F55D02D
:10487000016A01F00F01426A1140026A02F030023F
:10488000436A03EA0208026A02F4C072436A03EA56
:104890000207026A02F4FC42436A03EA0205026A62
:1048A00002F4F022436A03EA020619B101622046CB
:1048B00000F065FAB8F1000F06D06068C0F82080FB
:1048C0004146204600F05DFA6068416A11F0400FF1
:1048D0000DD0016A11F0400F09D0C16B090CC26BF9
:1048E00002F03F0240230362204600F049FA2FB154
:1048F000606807623946204600F040FA35B16068CA
:104900000562D4F89C002843C4F89C0036B1606866
:104910000662D4F89C003043C4F89C00D4F89C0094
:10492000002802D02046FFF789FDBDE8F09F000077
:1049300010A800402DE9F04194B004464C22A14952
:1049400001A8FBF7F8FC5CB19F4F2068B84202D188
:1049500000F58070606094F89800002620B108E0AF
:1049600014B00120BDE8F08184F89960204600F081
:104970002DF92068816921F01001816100F0D0FBE0
:104980000546206880694FF0030810F0080F15D025
:1049900000F0C6FB401B0A280BD9D4F89C0040F05D
:1049A0000100C4F89C0084F8988014B00120BDE890
:1049B000F0812068806910F0080FE9D120688169D2
:1049C00041F00101816100F0ABFB05462068806980
:1049D00010F0010F15D100F0A3FB401B0A280BD9E2
:1049E000D4F89C0040F00100C4F89C0084F8988042
:1049F00014B00120BDE8F0812068806910F0010F3B
:104A0000E9D02068816941F002018161207C0128A0
:104A100039D02068816941F040018161607C0128C2
:104A200037D02068816921F480418161A07C012810
:104A300035D02068816941F48051816120688169A5
:104A4000A26821F44071114381612068816921F0DD
:104A5000A40181612068016921F010010161E06811
:104A6000012822D030B302282BD02068816941F080
:104A7000800181612068016941F010010161E068F5
:104A8000032818D022E02068816921F0400181616B
:104A9000C4E72068816941F480418161C6E72068EC
:104AA000816921F480518161C8E72068816941F002
:104AB000040181610AE02068816941F0200181617F
:104AC00004E02068816941F020018161207EE16974
:104AD000401E491E400640EA0120216A491E084343
:104AE000A18A491E40EA01402168C861A068B0F56A
:104AF000407F0FD1E16AA06A491E401E40EA0120B2
:104B0000216B491E40EA0110A18C491E40EA014078
:104B10002168C860206E30B12068D0F8C010626E85
:104B20001143C0F8C010216EE06DC84201A90AD03F
:104B30002068D0F8C820A36E22F0070251F8233075
:104B40001A43C0F8C820206C50B12068D0F8BC20AF
:104B5000636C22F0070251F823301A43C0F8BC20DE
:104B6000A06C58B12068D0F8BC20E36C22F0700231
:104B700051F8233042EA0312C0F8BC20206D58B12E
:104B80002068D0F8BC20636D22F4E06251F8231055
:104B900042EA0121C0F8BC102068B84204D1606824
:104BA000816821F003018160C4F89460C4F89C60BE
:104BB000012084F898002046FDF73CFB14B0BDE8C6
:104BC000F0810000780F010800A000402DE9F043BB
:104BD000B5B0804614212FA8FBF7C6FBBC21684660
:104BE000FBF7C2FB3B4D4FF40041D8F80000002614
:104BF000394B4A03364F0C3D364C98424FF0020871
:104C00004FF009092ED168461B92009101F096F9E8
:104C100008B1FDF701FB3868401C3860012807D156
:104C2000206840F480702060206800F48070349028
:104C3000286840F00100286028684FF4C052CDE990
:104C4000308600F001002F9232962FA9CDE93390E3
:104C5000224800F05DF901220221132000F014FF28
:104C600013202FE01E4B98422ED168461B920091D4
:104C700001F064F908B1FDF7CFFA3868401C3860DC
:104C8000012807D1206840F480702060206800F47B
:104C900080703490286840F0020028602868602204
:104CA000CDE9308600F002002F9232962FA9CDE98F
:104CB00033900C4800F02CF901221420114600F02A
:104CC000E3FE142000F0D2FE35B0BDE8F083000012
:104CD00000000024EC44025800A0004000000258EC
:104CE00000A40040000402587047000030B513498A
:104CF000044600688DB00AAD88420BD140212B4696
:104D00006A462046FFF79CFB012803D00C48C16887
:104D1000684688470B49206888420CD140212B46C1
:104D20006A462046FFF78CFB012804D00448103067
:104D3000C168684688470DB030BD000000A0004043
:104D40000C00002400A40040704790F8981001293E
:104D500007D0D0F89C1041F00401C0F89C1001204D
:104D60007047022180F8981001688A6922F00102D8
:104D70008A610021C0F89C1000207047704770477E
:104D8000704770477047704770477047704770476B
:104D90002DE9F04F00235D4C00297DD04FF0B04A43
:104DA0004FF0010E4FF00F090EFA03F707EA010C5E
:104DB000BCF1000F71D023F0030202F1B045D5F829
:104DC00008249E074FEA167809FA08F606EA020B4D
:104DD000A0F1B042B2F500327BD0A0F1B042B2F502
:104DE00001327ED0A0F1B042B2F502327BD0A0F108
:104DF000B042B2F5033278D0A0F1B042B2F504323D
:104E000075D0A0F1B042B2F5053272D0A0F1B04237
:104E1000B2F5063272D0A0F1B042B2F507326FD0CF
:104E2000A0F1B042B2F508326CD0A0F1B042B2F5B8
:104E3000093269D00A2202FA08F25A4518D12268CA
:104E400022EA0C022260626822EA0C026260DAF84E
:104E5000042022EA0C02CAF80420DAF8002022EA30
:104E60000C02CAF80020D5F80824B243C5F808247B
:104E7000D0F800C05D000322AA404CEA020CC0F842
:104E800000C04FEAD30C00EB8C0CDCF820505E071E
:104E9000F60E09FA06F601E019E013E0B543CCF886
:104EA0002050D0F80CC02CEA020CC0F80CC0D0F88E
:104EB00004C02CEA070CC0F804C0D0F808C02CEAE3
:104EC000020282605B1C31FA03F27FF46DAFBDE831
:104ED000F08F04E005E006E007E008E009E00022CA
:104EE000A9E70122A7E70222A5E70322A3E70422FC
:104EF000A1E705229FE701E002E003E006229AE72E
:104F0000072298E7082296E7092294E780000058D4
:104F10002DE9F84F0022DFF8E4C10B68002B7DD0AB
:104F2000DFF8DCB14FF0B04A4FF0010E4FF003084C
:104F30004FF00F090B680EFA02F52B40002B6ED0D4
:104F40000C7904F00304012C01D0022C11D18668E5
:104F5000540008FA04F7BE43CF6807FA04F4344358
:104F600084604468AC430D79C5F3001595402C432B
:104F700044604C6838EA040409D0C568540008FA53
:104F800004F6B5438E6806FA04F42C43C4600C7929
:104F900004F00304022C0DD1D40800EB84052E6A22
:104FA0005407E40E09FA04F7BE430F6907FA04F444
:104FB00034432C620568540008FA04F6B5430E79B0
:104FC00006F0030606FA04F42C4304604C6814F45B
:104FD000403F78D0DBF8004044F00204CBF80040BA
:104FE000DBF8004004F00204009422F0030404F112
:104FF000B046D6F8084495072D0F09FA05F724EABC
:105000000707A0F1B044B4F5003463D0A0F1B04478
:10501000B4F5013460D0A0F1B04401E058E052E0B2
:10502000B4F502345AD0A0F1B044B4F5033457D0EB
:10503000A0F1B044B4F5043454D0A0F1B044B4F5B8
:10504000053451D0A0F1B044B4F506344ED0A0F1EF
:10505000B044B4F507344BD0A0F1B044B4F50834F3
:1050600048D0A0F1B044B4F5093445D00A24AC408E
:105070003C43C6F80844DAF800409C434D6815F4F8
:10508000801F00D01C43CAF80040DAF804409C435B
:105090004D6815F4001F00D01C43CAF80440DCF82A
:1050A00004409C434D6815F4003F00D01C43CCF8ED
:1050B0000440DCF800409C434D6815F4803F00D06C
:1050C0001C43CCF80040521C0B68D3407FF432AF35
:1050D000BDE8F88F0024CAE70124C8E70224C6E728
:1050E0000324C4E70424C2E70524C0E70624BEE77E
:1050F0000724BCE70824BAE70924B8E78000005871
:10510000F4440258002A01D081617047090481618A
:105110007047000001480068000C70470010005CF8
:1051200001488068704700004003002490F8412047
:10513000202A01D00220704790F84020012A20D078
:10514000012280F84020242280F841200268136860
:1051500023F0010313600268136823F48053136083
:10516000026813681943116001680A6842F001027D
:105170000A60202180F84110002180F840100020B2
:1051800070470220704790F84120202A01D0022069
:10519000704790F84020012A1ED0012280F840205C
:1051A000242280F841200268136823F00103136071
:1051B0000268136823F4706343EA012111600168F7
:1051C0000A6842F001020A60202180F841100021A3
:1051D00080F84010002070470220704710B5044648
:1051E000002C14D0242084F841002068016821F0AC
:1051F00001010160204600F0DDFA0020606484F8BF
:105200004100206384F8420084F8400010BD012072
:1052100010BD90F84100704770B50446002C04D0D2
:1052200094F84100002510B106E0012070BD84F81B
:105230004050204600F0F2FA242084F84100206813
:10524000016821F0010101602168606820F0706050
:1052500008612068816821F400418160E0680128CC
:1052600008D02168A06840F404408860E068022803
:1052700006D009E02168A06840F400408860F5E7A6
:1052800021684FF4006048602068416841F40041A3
:1052900041F0007141602068C16821F40041C160A3
:1052A000616920690843A16940EA01202168C8605A
:1052B000216AE0690843216808602068016841F0BC
:1052C000010101606564202084F84100256384F8B1
:1052D0004250002070BD2DE9F04F83B004461746C0
:1052E0001D464FF0000BCDF808B094F8410020287F
:1052F00003D003B00220BDE8F08F2068806910F46D
:10530000004F03D003B00220BDE8F08F94F84000B6
:10531000012828D0012084F84000242084F841008E
:10532000C4F844B0C1F3090020F480614FF0200AB2
:1053300041F4005820F4806048F0007840F420598F
:10534000E068012813D0484621684860FFF7E8FE6E
:10535000064620688169C1F340118069C0F30010DE
:10536000084306D017E003B00220BDE8F08F4046A6
:10537000EAE7B5F1FF3F05D0FFF7D2FE801BA84258
:105380001AD8CDB120688169C1F340118069C0F39A
:1053900000100843EDD02068806910F0100F17D07E
:1053A00000222B4620212046009604F0F7F930B366
:1053B00003B00120BDE8F08F84F841A0606C40F09C
:1053C0002000606484F840B003B00120BDE8F08F95
:1053D00000222B4620212046009604F0DFF918B168
:1053E00003B00120BDE8F08F2068C0F81CA084F84D
:1053F00041A084F840B003B00020BDE8F08F2168E0
:105400001020C8612068C0F81CA00298B84213D1CF
:105410002068416841F48041416000222B462021F0
:105420002046009604F0BAF918B103B00120BDE897
:10543000F08F2068C0F81CA00298401C02900298CF
:10544000B842FFF47DAF84F841A0606C40F02000CA
:10545000606484F840B003B00120BDE8F08F000024
:105460002DE9FF4F83B0044692469B46DDF84490F9
:10547000DDF84080129F94F84100202803D007B047
:105480000220BDE8F08FB8F1000F18D0B9F1000F7D
:1054900015D094F84000012818D0012084F840006D
:1054A000FFF73EFE05462046012200951923D10351
:1054B00004F074F970B107B00120BDE8F08F4FF42B
:1054C0000070606407B00120BDE8F08F07B00220D3
:1054D000BDE8F08F222084F84100402084F842008B
:1054E00000266664C4F82480A4F82A9066635B46AC
:1054F0000499524620460097019504F0B7F828B168
:1055000084F8406007B00120BDE8F08F618D4FF056
:10551000FF083D48FF290AD94246A4F8288004998B
:105520004FF080730090204604F01CF90AE0618D72
:1055300021854FF000730090204694F828200499AC
:1055400004F010F900223B4604212046009504F0A7
:1055500025F918B107B00120BDE8F08F2068406A36
:10556000616A0870606A401C6062208D401E80B2D3
:105570002085618D491E6185618D29B320BB002284
:105580003B4680212046009504F008F918B107B089
:105590000120BDE8F08F608DFF280AD94246A4F8AB
:1055A000288004994FF080732046009604F0DAF8C2
:1055B0000AE0608D20854FF000730096204694F835
:1055C0002820049904F0CEF8608D0028BAD12A462C
:1055D0003946204604F018F918B107B00120BDE89B
:1055E000F08F20682021C16120684268074B1A4073
:1055F000426084F8411084F8426084F8406007B04B
:105600000020BDE8F08F00000024008000E800FECC
:105610002DE9FF4F83B0044692469B46DDF8449047
:10562000DDF84080129F94F84100202803D007B095
:105630000220BDE8F08FB8F1000F18D0B9F1000FCB
:1056400015D094F84000012818D0012084F84000BB
:10565000FFF766FD05462046012200951923D10378
:1056600004F09CF870B107B00120BDE8F08F4FF452
:105670000070606407B00120BDE8F08F07B0022021
:10568000BDE8F08F212084F84100402084F84200DA
:1056900000266664C4F82480A4F82A9066635B46FA
:1056A0000499524620460097019504F01DF828B150
:1056B00084F8406007B00120BDE8F08F608D4FF0A6
:1056C000FF08FF280AD94246A4F8288004994FF021
:1056D00080732046009604F045F80AE0608D20852E
:1056E0004FF000730096204694F82820049904F0A7
:1056F00039F82A463946204604F0B2F818B107B006
:105700000120BDE8F08F606A216800788862606AD5
:10571000401C6062608D401E6085208D401E80B2FE
:105720002085618D29B320BB00223B468021204685
:10573000009504F033F818B107B00120BDE8F08FF0
:10574000608DFF280AD94246A4F8288004994FF0BA
:1057500080732046009604F005F80AE0608D2085ED
:105760004FF000730096204694F82820049903F027
:10577000F9FF608D0028BCD12A463946204604F046
:1057800043F818B107B00120BDE8F08F2068202150
:10579000C16120684268064B1A40426084F841109B
:1057A00084F8426084F8406007B00020BDE8F08FC4
:1057B00000E800FE10B50068134988420DD1134877
:1057C000016821F480010160114C4FF48061204692
:1057D000FFF7DEFA4FF4006110E00E49884212D163
:1057E0000A480C30016821F0800101600A4C4FF436
:1057F00080512046FFF7CCFA4FF400512046BDE817
:105800001040FFF7C5BA10BD00580040E8440258E8
:1058100000040258001C0058000C0258F0B5B5B046
:10582000044614212FA8FAF79FFDBC216846FAF719
:105830009BFD2D491226206804272A4D002488420A
:1058400025D1082020940090684600F077FB08B12D
:10585000FCF7E2FC286840F00200286028682FA9C5
:10586000CDE9306400F0020034904FF440602F9096
:105870001E48CDE93247FFF74BFB1A480830016854
:1058800041F480010160006800F4800027E01849BD
:10589000884225D1102025940090684600F04EFBE8
:1058A00008B1FCF7B9FC286840F0080028602868B7
:1058B0002FA9CDE9306400F0080034904FF4405037
:1058C0002F900C48CDE93247FFF722FB05481430F2
:1058D000016841F080010160006800F080003490B0
:1058E00035B0F0BDE04402580058004000040258B2
:1058F000001C0058000C02580248816802781144CC
:10590000816070474003002410B5032000F0F2F8D6
:1059100001F096F90F4A1168C1F303230E49CB5CDD
:1059200003F01F03D840126802F00F02895C0B4A93
:1059300001F01F0120FA01F11160094908600020FF
:1059400000F010F808B1012010BD00F07FF8002031
:1059500010BD000018440258560901080800002430
:105960000400002470B504460F4D2A78002A0CD09C
:105970004FF47A700D49B0FBF2F00968B1FBF0F01A
:1059800001F0B6FE18B1012070BD012070BD102CD1
:1059900007D200222146501E00F076F86C600020ED
:1059A00070BD012070BD00004003002404000024ED
:1059B000144A41781160111D03780A1D002B1CD078
:1059C00043680B60017BC37A090741EA0361837A6C
:1059D00041EAC341437B41EA8341837B41EA43413E
:1059E000C37B41EA0341437A41EA0321037A007809
:1059F00041EA4301084310607047002008601060CE
:105A00007047000098ED00E0BFF35F8F0448016825
:105A100021F48031016003490020086070470000D4
:105A200024ED00E094ED00E0064940F0010008603C
:105A30000548016841F480310160BFF34F8FBFF327
:105A40006F8F704794ED00E024ED00E0064882B0CF
:105A5000016841F002010160006800F0020000905E
:105A6000052002B000F046B8F444025800280ADBD2
:105A7000012200F01F0102FA01F14009800000F14B
:105A8000E020C0F8001170474DF8044D184B1B681A
:105A9000C3F30223C3F1070CBCF1040F01D94FF08B
:105AA000040C1C1D072C01D2002300E0DB1E012486
:105AB00004FA0CFCACF1010C0CEA0101994004FA67
:105AC00003F35B1E1A401143002807DB00F1E020BE
:105AD000090180F800145DF8044B704700F00F00D6
